:02000000FD2BD6
:10075A00FE3083169F05FE30850501308312A00006
:10076A00003005180130013EBC2B0310A00DFF3EDE
:10077A00031DBA2B2008FF3A850501308312A00019
:10078A00003005180130013ECC2B0310A00DFF3EAE
:10079A00031DCA2B200885040330A2008A30A10059
:1007AA005530A000A00BD72BA10BD72BA20BD72B10
:1007BA00DE2B01308312A000003005180130013E03
:1007CA00E82B0310A00DFF3E031DE62B2008FF3A7D
:1007DA0085050330A2008A30A1005530A000A00B85
:1007EA00F42BA10BF42BA20BF42BFB2BC22B00280E
:0407FA008301AD2B9F
:02400E008431FB
:00000001FF
