:020000000B28CB
:10000800DE00030E8312A1000A08A20010280C28A3
:100018008312A301830133280B1C132814282C28CE
:1000280008302305A00005080839200603191D28F3
:100038001E2829280310051C031403182428272820
:10004800831205142928831205100508A3000B1034
:1000580022088A00210E8300DE0E5E0E0900FF30A2
:1000680083169000083085008312850183169F014E
:100078000730831299000508A3008B158B17831688
:06008800961545280B2827
:02400E008431FB
:00000001FF
