:02000000FD2BD6
:1007520083161F08FE308505851501308312A0001F
:10076200003005180130013EB82B0310A00DFF3EEA
:10077200031DB62B2008FF3A85058312851DC22B67
:10078200C32BAE2B0130A000003005180130013E12
:10079200CC2B0310A00DFF3E031DCA2B200885049D
:1007A2000330A2008A30A1005530A000A00BD72B45
:1007B200A10BD72BA20BD72BDE2B01308312A0006B
:1007C200003005180130013EE82B0310A00DFF3E5A
:1007D200031DE62B2008FF3A85050330A2008A306C
:1007E200A1005530A000A00BF42BA10BF42BA20BFF
:0C07F200F42BFB2BBE2B00288301A92B4D
:02400E008431FB
:00000001FF
